{
  "contractName": "Contribution",
  "abi": [
    {
      "inputs": [
        {
          "internalType": "contract MockToken",
          "name": "_mockToken",
          "type": "address"
        }
      ],
      "stateMutability": "nonpayable",
      "type": "constructor"
    },
    {
      "anonymous": false,
      "inputs": [
        {
          "indexed": false,
          "internalType": "address",
          "name": "contributor",
          "type": "address"
        },
        {
          "indexed": false,
          "internalType": "uint256",
          "name": "totalContribution",
          "type": "uint256"
        }
      ],
      "name": "Received",
      "type": "event"
    },
    {
      "inputs": [
        {
          "internalType": "address",
          "name": "",
          "type": "address"
        }
      ],
      "name": "ContributionList",
      "outputs": [
        {
          "internalType": "uint256",
          "name": "",
          "type": "uint256"
        }
      ],
      "stateMutability": "view",
      "type": "function",
      "constant": true
    },
    {
      "inputs": [],
      "name": "tokenContract",
      "outputs": [
        {
          "internalType": "contract MockToken",
          "name": "",
          "type": "address"
        }
      ],
      "stateMutability": "view",
      "type": "function",
      "constant": true
    },
    {
      "inputs": [],
      "name": "sendEth",
      "outputs": [],
      "stateMutability": "payable",
      "type": "function",
      "payable": true
    },
    {
      "inputs": [
        {
          "internalType": "address",
          "name": "_Contributor",
          "type": "address"
        }
      ],
      "name": "checkTotalContribution",
      "outputs": [
        {
          "internalType": "uint256",
          "name": "",
          "type": "uint256"
        }
      ],
      "stateMutability": "view",
      "type": "function",
      "constant": true
    }
  ],
  "bytecode": "0x608060405234801561001057600080fd5b506040516109113803806109118339818101604052810190610032919061008d565b806000806101000a81548173ffffffffffffffffffffffffffffffffffffffff021916908373ffffffffffffffffffffffffffffffffffffffff16021790555050610111565b600081519050610087816100fa565b92915050565b60006020828403121561009f57600080fd5b60006100ad84828501610078565b91505092915050565b60006100c1826100da565b9050919050565b60006100d3826100b6565b9050919050565b600073ffffffffffffffffffffffffffffffffffffffff82169050919050565b610103816100c8565b811461010e57600080fd5b50565b6107f1806101206000396000f3fe60806040526004361061003f5760003560e01c806306e99fef1461004457806355a373d61461004e578063b5ecad3414610079578063d2b10911146100b6575b600080fd5b61004c6100f3565b005b34801561005a57600080fd5b50610063610338565b6040516100709190610564565b60405180910390f35b34801561008557600080fd5b506100a0600480360381019061009b9190610438565b61035c565b6040516100ad919061059f565b60405180910390f35b3480156100c257600080fd5b506100dd60048036038101906100d89190610438565b6103aa565b6040516100ea919061059f565b60405180910390f35b6100fe3460026103c2565b60008054906101000a900473ffffffffffffffffffffffffffffffffffffffff1673ffffffffffffffffffffffffffffffffffffffff166370a08231306040518263ffffffff1660e01b81526004016101579190610520565b60206040518083038186803b15801561016f57600080fd5b505afa158015610183573d6000803e3d6000fd5b505050506040513d601f19601f820116820180604052508101906101a7919061048a565b116101e7576040517f08c379a00000000000000000000000000000000000000000000000000000000081526004016101de9061057f565b60405180910390fd5b60008054906101000a900473ffffffffffffffffffffffffffffffffffffffff1673ffffffffffffffffffffffffffffffffffffffff1663a9059cbb3361022f3460026103c2565b6040518363ffffffff1660e01b815260040161024c92919061053b565b602060405180830381600087803b15801561026657600080fd5b505af115801561027a573d6000803e3d6000fd5b505050506040513d601f19601f8201168201806040525081019061029e9190610461565b6102a757600080fd5b7f88a5966d370b9919b20f3e2c13ff65706f196a4e32cc2c12bf57088f8852587433346040516102d892919061053b565b60405180910390a134600160003373ffffffffffffffffffffffffffffffffffffffff1673ffffffffffffffffffffffffffffffffffffffff168152602001908152602001600020600082825461032f91906105cb565b92505081905550565b60008054906101000a900473ffffffffffffffffffffffffffffffffffffffff1681565b600080600160008473ffffffffffffffffffffffffffffffffffffffff1673ffffffffffffffffffffffffffffffffffffffff16815260200190815260200160002054905080915050919050565b60016020528060005260406000206000915090505481565b6000808314806103ea5750818383856103db9190610652565b9250826103e89190610621565b145b6103f357600080fd5b92915050565b60008135905061040881610776565b92915050565b60008151905061041d8161078d565b92915050565b600081519050610432816107a4565b92915050565b60006020828403121561044a57600080fd5b6000610458848285016103f9565b91505092915050565b60006020828403121561047357600080fd5b60006104818482850161040e565b91505092915050565b60006020828403121561049c57600080fd5b60006104aa84828501610423565b91505092915050565b6104bc816106ac565b82525050565b6104cb816106f4565b82525050565b60006104de601d836105ba565b91507f4e6f7420656e6f75676820746f6b656e7320696e20636f6e74726163740000006000830152602082019050919050565b61051a816106ea565b82525050565b600060208201905061053560008301846104b3565b92915050565b600060408201905061055060008301856104b3565b61055d6020830184610511565b9392505050565b600060208201905061057960008301846104c2565b92915050565b60006020820190508181036000830152610598816104d1565b9050919050565b60006020820190506105b46000830184610511565b92915050565b600082825260208201905092915050565b60006105d6826106ea565b91506105e1836106ea565b9250827fffffffffffffffffffffffffffffffffffffffffffffffffffffffffffffffff0382111561061657610615610718565b5b828201905092915050565b600061062c826106ea565b9150610637836106ea565b92508261064757610646610747565b5b828204905092915050565b600061065d826106ea565b9150610668836106ea565b9250817fffffffffffffffffffffffffffffffffffffffffffffffffffffffffffffffff04831182151516156106a1576106a0610718565b5b828202905092915050565b60006106b7826106ca565b9050919050565b60008115159050919050565b600073ffffffffffffffffffffffffffffffffffffffff82169050919050565b6000819050919050565b60006106ff82610706565b9050919050565b6000610711826106ca565b9050919050565b7f4e487b7100000000000000000000000000000000000000000000000000000000600052601160045260246000fd5b7f4e487b7100000000000000000000000000000000000000000000000000000000600052601260045260246000fd5b61077f816106ac565b811461078a57600080fd5b50565b610796816106be565b81146107a157600080fd5b50565b6107ad816106ea565b81146107b857600080fd5b5056fea2646970667358221220c7b6d7cfdf744401fd8c105fe65e65fd410ba30c500aa219b72b0f51b97183b964736f6c63430008000033",
  "immutableReferences": {},
  "source": "//SPDX-License-Identifier: UNLICENSED\r\npragma solidity ^0.8.0;\r\nimport \"@openzeppelin/contracts/token/ERC20/IERC20.sol\";\r\nimport \"./MockToken.sol\";\r\ncontract Contribution{\r\n  MockToken public tokenContract;\r\n  mapping(address => uint) public ContributionList;\r\n  event Received(address contributor, uint totalContribution);\r\n\r\n//constructor is initialized with mockToken address\r\n    constructor(MockToken _mockToken){\r\n      tokenContract = _mockToken;\r\n}\r\n//safe multiplication. Takes two integers as input\r\nfunction multiply(uint a,uint b) internal pure returns (uint c){\r\n      require(a == 0 || (c = a * b) / a == b);\r\n  }\r\n\r\n//recieves eth & sends out mockTokens at the rate of msg.value * 2\r\n function sendEth() public payable {\r\n   //Ensure contract has enough tokens for transfer\r\n   require(tokenContract.balanceOf(address(this)) >  multiply(msg.value,2),\"Not enough tokens in contract\");\r\n   //transfer tokens to Contributor\r\n   require(tokenContract.transfer(msg.sender,  multiply(msg.value,2)));\r\n   //emit event\r\n   emit Received(msg.sender, msg.value);\r\n   //update Contributor List\r\n   ContributionList[msg.sender] += msg.value;\r\n }\r\n//Takes an address as input. returns total Contribution of user\r\n function checkTotalContribution(address _Contributor) public view returns(uint) {\r\n   uint ethContribution = ContributionList[_Contributor];\r\n   return ethContribution;\r\n }\r\n\r\n}\r\n",
  "sourcePath": "C:\\Users\\jjrab\\OneDrive\\Desktop\\Dappdev\\Interactive-Challenge\\contracts\\Contribution.sol",
  "compiler": {
    "name": "solc",
    "version": "0.8.0+commit.c7dfd78e.Emscripten.clang"
  },
  "schemaVersion": "3.4.3",
  "updatedAt": "2021-11-26T14:33:12.652Z",
  "networkType": "ethereum",
  "devdoc": {
    "kind": "dev",
    "methods": {},
    "version": 1
  },
  "userdoc": {
    "kind": "user",
    "methods": {},
    "version": 1
  }
}