{
  "contractName": "Contribution",
  "abi": [
    {
      "inputs": [
        {
          "internalType": "contract MockToken",
          "name": "_mockToken",
          "type": "address"
        }
      ],
      "stateMutability": "nonpayable",
      "type": "constructor"
    },
    {
      "anonymous": false,
      "inputs": [
        {
          "indexed": false,
          "internalType": "address",
          "name": "donator",
          "type": "address"
        },
        {
          "indexed": false,
          "internalType": "uint256",
          "name": "totalDonation",
          "type": "uint256"
        }
      ],
      "name": "Received",
      "type": "event"
    },
    {
      "inputs": [
        {
          "internalType": "address",
          "name": "",
          "type": "address"
        }
      ],
      "name": "DonatorList",
      "outputs": [
        {
          "internalType": "uint256",
          "name": "",
          "type": "uint256"
        }
      ],
      "stateMutability": "view",
      "type": "function"
    },
    {
      "inputs": [],
      "name": "numberOfTokens",
      "outputs": [
        {
          "internalType": "uint256",
          "name": "",
          "type": "uint256"
        }
      ],
      "stateMutability": "view",
      "type": "function"
    },
    {
      "inputs": [],
      "name": "tokenContract",
      "outputs": [
        {
          "internalType": "contract MockToken",
          "name": "",
          "type": "address"
        }
      ],
      "stateMutability": "view",
      "type": "function"
    },
    {
      "stateMutability": "payable",
      "type": "receive"
    }
  ],
  "bytecode": "0x608060405234801561001057600080fd5b506040516108ab3803806108ab8339818101604052810190610032919061008d565b806000806101000a81548173ffffffffffffffffffffffffffffffffffffffff021916908373ffffffffffffffffffffffffffffffffffffffff16021790555050610111565b600081519050610087816100fa565b92915050565b60006020828403121561009f57600080fd5b60006100ad84828501610078565b91505092915050565b60006100c1826100da565b9050919050565b60006100d3826100b6565b9050919050565b600073ffffffffffffffffffffffffffffffffffffffff82169050919050565b610103816100c8565b811461010e57600080fd5b50565b61078b806101206000396000f3fe6080604052600436106100385760003560e01c806355a373d614610287578063b631a985146102b2578063f9f16ef2146102ef57610282565b366102825761004834600261031a565b60008054906101000a900473ffffffffffffffffffffffffffffffffffffffff1673ffffffffffffffffffffffffffffffffffffffff166370a08231306040518263ffffffff1660e01b81526004016100a191906104ba565b60206040518083038186803b1580156100b957600080fd5b505afa1580156100cd573d6000803e3d6000fd5b505050506040513d601f19601f820116820180604052508101906100f19190610424565b11610131576040517f08c379a000000000000000000000000000000000000000000000000000000000815260040161012890610519565b60405180910390fd5b60008054906101000a900473ffffffffffffffffffffffffffffffffffffffff1673ffffffffffffffffffffffffffffffffffffffff1663a9059cbb3361017934600261031a565b6040518363ffffffff1660e01b81526004016101969291906104d5565b602060405180830381600087803b1580156101b057600080fd5b505af11580156101c4573d6000803e3d6000fd5b505050506040513d601f19601f820116820180604052508101906101e891906103fb565b6101f157600080fd5b7f88a5966d370b9919b20f3e2c13ff65706f196a4e32cc2c12bf57088f8852587433346040516102229291906104d5565b60405180910390a134600260003373ffffffffffffffffffffffffffffffffffffffff1673ffffffffffffffffffffffffffffffffffffffff16815260200190815260200160002060008282546102799190610565565b92505081905550005b600080fd5b34801561029357600080fd5b5061029c610351565b6040516102a991906104fe565b60405180910390f35b3480156102be57600080fd5b506102d960048036038101906102d491906103d2565b610375565b6040516102e69190610539565b60405180910390f35b3480156102fb57600080fd5b5061030461038d565b6040516103119190610539565b60405180910390f35b60008083148061034257508183838561033391906105ec565b92508261034091906105bb565b145b61034b57600080fd5b92915050565b60008054906101000a900473ffffffffffffffffffffffffffffffffffffffff1681565b60026020528060005260406000206000915090505481565b60015481565b6000813590506103a281610710565b92915050565b6000815190506103b781610727565b92915050565b6000815190506103cc8161073e565b92915050565b6000602082840312156103e457600080fd5b60006103f284828501610393565b91505092915050565b60006020828403121561040d57600080fd5b600061041b848285016103a8565b91505092915050565b60006020828403121561043657600080fd5b6000610444848285016103bd565b91505092915050565b61045681610646565b82525050565b6104658161068e565b82525050565b6000610478601d83610554565b91507f4e6f7420656e6f75676820746f6b656e7320696e20636f6e74726163740000006000830152602082019050919050565b6104b481610684565b82525050565b60006020820190506104cf600083018461044d565b92915050565b60006040820190506104ea600083018561044d565b6104f760208301846104ab565b9392505050565b6000602082019050610513600083018461045c565b92915050565b600060208201905081810360008301526105328161046b565b9050919050565b600060208201905061054e60008301846104ab565b92915050565b600082825260208201905092915050565b600061057082610684565b915061057b83610684565b9250827fffffffffffffffffffffffffffffffffffffffffffffffffffffffffffffffff038211156105b0576105af6106b2565b5b828201905092915050565b60006105c682610684565b91506105d183610684565b9250826105e1576105e06106e1565b5b828204905092915050565b60006105f782610684565b915061060283610684565b9250817fffffffffffffffffffffffffffffffffffffffffffffffffffffffffffffffff048311821515161561063b5761063a6106b2565b5b828202905092915050565b600061065182610664565b9050919050565b60008115159050919050565b600073ffffffffffffffffffffffffffffffffffffffff82169050919050565b6000819050919050565b6000610699826106a0565b9050919050565b60006106ab82610664565b9050919050565b7f4e487b7100000000000000000000000000000000000000000000000000000000600052601160045260246000fd5b7f4e487b7100000000000000000000000000000000000000000000000000000000600052601260045260246000fd5b61071981610646565b811461072457600080fd5b50565b61073081610658565b811461073b57600080fd5b50565b61074781610684565b811461075257600080fd5b5056fea264697066735822122073d61639d0238a06552514a8f21828bbac8d2372f3d323480be5322b9595335664736f6c63430008000033",
  "immutableReferences": {},
  "source": "//\"SPDX-License-Identifier: <SPDX-License>\r\npragma solidity ^0.8.0;\r\nimport \"@openzeppelin/contracts/token/ERC20/IERC20.sol\";\r\nimport \"./MockToken.sol\";\r\ncontract Contribution{\r\n  MockToken public tokenContract;\r\n  uint256 public numberOfTokens;\r\n  mapping(address => uint) public DonatorList;\r\n  event Received(address donator, uint totalDonation);\r\n\r\n    constructor(MockToken _mockToken)  public{\r\n      tokenContract = _mockToken;\r\n}\r\nfunction multiply(uint a,uint b) internal pure returns (uint c){\r\n      require(a == 0 || (c = a * b) / a == b);\r\n  }\r\n\r\n receive() external payable {\r\n\r\n   //Ensure contract has enough tokens\r\n   require(tokenContract.balanceOf(address(this)) >  multiply(msg.value,2),\"Not enough tokens in contract\");\r\n   //transfer tokens to donator\r\n   require(tokenContract.transfer(msg.sender,  multiply(msg.value,2)));\r\n   //emit event\r\n  emit Received(msg.sender, msg.value);\r\n      //update donator List\r\n   DonatorList[msg.sender] += msg.value;\r\n }\r\n\r\n}\r\n",
  "sourcePath": "C:\\Users\\jjrab\\OneDrive\\Desktop\\Dappdev\\Interactive-Challenge\\contracts\\Contribution.sol",
  "compiler": {
    "name": "solc",
    "version": "0.8.0+commit.c7dfd78e.Emscripten.clang"
  },
  "schemaVersion": "3.4.3",
  "updatedAt": "2021-11-22T17:25:27.572Z",
  "devdoc": {
    "kind": "dev",
    "methods": {},
    "version": 1
  },
  "userdoc": {
    "kind": "user",
    "methods": {},
    "version": 1
  }
}