{
  "contractName": "Contribution",
  "abi": [
    {
      "inputs": [
        {
          "internalType": "contract MockToken",
          "name": "_mockToken",
          "type": "address"
        }
      ],
      "stateMutability": "nonpayable",
      "type": "constructor"
    },
    {
      "anonymous": false,
      "inputs": [
        {
          "indexed": false,
          "internalType": "address",
          "name": "Contributor",
          "type": "address"
        },
        {
          "indexed": false,
          "internalType": "uint256",
          "name": "totalContribution",
          "type": "uint256"
        }
      ],
      "name": "Received",
      "type": "event"
    },
    {
      "inputs": [
        {
          "internalType": "address",
          "name": "",
          "type": "address"
        }
      ],
      "name": "ContributionList",
      "outputs": [
        {
          "internalType": "uint256",
          "name": "",
          "type": "uint256"
        }
      ],
      "stateMutability": "view",
      "type": "function",
      "constant": true
    },
    {
      "inputs": [],
      "name": "tokenContract",
      "outputs": [
        {
          "internalType": "contract MockToken",
          "name": "",
          "type": "address"
        }
      ],
      "stateMutability": "view",
      "type": "function",
      "constant": true
    },
    {
      "stateMutability": "payable",
      "type": "receive",
      "payable": true
    },
    {
      "inputs": [
        {
          "internalType": "address",
          "name": "_Contributor",
          "type": "address"
        }
      ],
      "name": "checkTotalContribution",
      "outputs": [
        {
          "internalType": "uint256",
          "name": "",
          "type": "uint256"
        }
      ],
      "stateMutability": "nonpayable",
      "type": "function"
    }
  ],
  "bytecode": "0x608060405234801561001057600080fd5b506040516109053803806109058339818101604052810190610032919061008d565b806000806101000a81548173ffffffffffffffffffffffffffffffffffffffff021916908373ffffffffffffffffffffffffffffffffffffffff16021790555050610111565b600081519050610087816100fa565b92915050565b60006020828403121561009f57600080fd5b60006100ad84828501610078565b91505092915050565b60006100c1826100da565b9050919050565b60006100d3826100b6565b9050919050565b600073ffffffffffffffffffffffffffffffffffffffff82169050919050565b610103816100c8565b811461010e57600080fd5b50565b6107e5806101206000396000f3fe6080604052600436106100385760003560e01c806355a373d614610287578063b5ecad34146102b2578063d2b10911146102ef57610282565b366102825761004834600261032c565b60008054906101000a900473ffffffffffffffffffffffffffffffffffffffff1673ffffffffffffffffffffffffffffffffffffffff166370a08231306040518263ffffffff1660e01b81526004016100a19190610514565b60206040518083038186803b1580156100b957600080fd5b505afa1580156100cd573d6000803e3d6000fd5b505050506040513d601f19601f820116820180604052508101906100f1919061047e565b11610131576040517f08c379a000000000000000000000000000000000000000000000000000000000815260040161012890610573565b60405180910390fd5b60008054906101000a900473ffffffffffffffffffffffffffffffffffffffff1673ffffffffffffffffffffffffffffffffffffffff1663a9059cbb3361017934600261032c565b6040518363ffffffff1660e01b815260040161019692919061052f565b602060405180830381600087803b1580156101b057600080fd5b505af11580156101c4573d6000803e3d6000fd5b505050506040513d601f19601f820116820180604052508101906101e89190610455565b6101f157600080fd5b7f88a5966d370b9919b20f3e2c13ff65706f196a4e32cc2c12bf57088f88525874333460405161022292919061052f565b60405180910390a134600160003373ffffffffffffffffffffffffffffffffffffffff1673ffffffffffffffffffffffffffffffffffffffff168152602001908152602001600020600082825461027991906105bf565b92505081905550005b600080fd5b34801561029357600080fd5b5061029c610363565b6040516102a99190610558565b60405180910390f35b3480156102be57600080fd5b506102d960048036038101906102d4919061042c565b610387565b6040516102e69190610593565b60405180910390f35b3480156102fb57600080fd5b506103166004803603810190610311919061042c565b6103d5565b6040516103239190610593565b60405180910390f35b6000808314806103545750818383856103459190610646565b9250826103529190610615565b145b61035d57600080fd5b92915050565b60008054906101000a900473ffffffffffffffffffffffffffffffffffffffff1681565b600080600160008473ffffffffffffffffffffffffffffffffffffffff1673ffffffffffffffffffffffffffffffffffffffff16815260200190815260200160002054905080915050919050565b60016020528060005260406000206000915090505481565b6000813590506103fc8161076a565b92915050565b60008151905061041181610781565b92915050565b60008151905061042681610798565b92915050565b60006020828403121561043e57600080fd5b600061044c848285016103ed565b91505092915050565b60006020828403121561046757600080fd5b600061047584828501610402565b91505092915050565b60006020828403121561049057600080fd5b600061049e84828501610417565b91505092915050565b6104b0816106a0565b82525050565b6104bf816106e8565b82525050565b60006104d2601d836105ae565b91507f4e6f7420656e6f75676820746f6b656e7320696e20636f6e74726163740000006000830152602082019050919050565b61050e816106de565b82525050565b600060208201905061052960008301846104a7565b92915050565b600060408201905061054460008301856104a7565b6105516020830184610505565b9392505050565b600060208201905061056d60008301846104b6565b92915050565b6000602082019050818103600083015261058c816104c5565b9050919050565b60006020820190506105a86000830184610505565b92915050565b600082825260208201905092915050565b60006105ca826106de565b91506105d5836106de565b9250827fffffffffffffffffffffffffffffffffffffffffffffffffffffffffffffffff0382111561060a5761060961070c565b5b828201905092915050565b6000610620826106de565b915061062b836106de565b92508261063b5761063a61073b565b5b828204905092915050565b6000610651826106de565b915061065c836106de565b9250817fffffffffffffffffffffffffffffffffffffffffffffffffffffffffffffffff04831182151516156106955761069461070c565b5b828202905092915050565b60006106ab826106be565b9050919050565b60008115159050919050565b600073ffffffffffffffffffffffffffffffffffffffff82169050919050565b6000819050919050565b60006106f3826106fa565b9050919050565b6000610705826106be565b9050919050565b7f4e487b7100000000000000000000000000000000000000000000000000000000600052601160045260246000fd5b7f4e487b7100000000000000000000000000000000000000000000000000000000600052601260045260246000fd5b610773816106a0565b811461077e57600080fd5b50565b61078a816106b2565b811461079557600080fd5b50565b6107a1816106de565b81146107ac57600080fd5b5056fea2646970667358221220661bd336f8ebc54a99521eff8dd256eed875ee1b971f73475ac0c469199da53264736f6c63430008000033",
  "immutableReferences": {},
  "source": "//SPDX-License-Identifier: <SPDX-License>\r\npragma solidity ^0.8.0;\r\nimport \"@openzeppelin/contracts/token/ERC20/IERC20.sol\";\r\nimport \"./MockToken.sol\";\r\ncontract Contribution{\r\n  MockToken public tokenContract;\r\n  mapping(address => uint) public ContributionList;\r\n  event Received(address Contributor, uint totalContribution);\r\n\r\n//constructor is initialized with mockToken address\r\n    constructor(MockToken _mockToken)  public{\r\n      tokenContract = _mockToken;\r\n}\r\n//safe multiplication. Takes two integers as input\r\nfunction multiply(uint a,uint b) internal pure returns (uint c){\r\n      require(a == 0 || (c = a * b) / a == b);\r\n  }\r\n\r\n//recieves eth & sends out mockTokens at the rate of msg.value * 2\r\n receive() external payable {\r\n   //Ensure contract has enough tokens for transfer\r\n   require(tokenContract.balanceOf(address(this)) >  multiply(msg.value,2),\"Not enough tokens in contract\");\r\n   //transfer tokens to Contributor\r\n   require(tokenContract.transfer(msg.sender,  multiply(msg.value,2)));\r\n   //emit event\r\n   emit Received(msg.sender, msg.value);\r\n   //update Contributor List\r\n   ContributionList[msg.sender] += msg.value;\r\n }\r\n\r\n function checkTotalContribution(address _Contributor) public returns(uint) {\r\n   uint ethContribution = ContributionList[_Contributor];\r\n   return ethContribution;\r\n }\r\n\r\n}\r\n",
  "sourcePath": "C:\\Users\\jjrab\\OneDrive\\Desktop\\Dappdev\\Interactive-Challenge\\contracts\\Contribution.sol",
  "compiler": {
    "name": "solc",
    "version": "0.8.0+commit.c7dfd78e.Emscripten.clang"
  },
  "schemaVersion": "3.4.3",
  "updatedAt": "2021-11-22T18:07:50.981Z",
  "networkType": "ethereum",
  "devdoc": {
    "kind": "dev",
    "methods": {},
    "version": 1
  },
  "userdoc": {
    "kind": "user",
    "methods": {},
    "version": 1
  }
}