{
  "contractName": "MockToken",
  "abi": [
    {
      "inputs": [
        {
          "internalType": "uint256",
          "name": "_startTime",
          "type": "uint256"
        },
        {
          "internalType": "uint256",
          "name": "_endTime",
          "type": "uint256"
        }
      ],
      "stateMutability": "nonpayable",
      "type": "constructor"
    },
    {
      "anonymous": false,
      "inputs": [
        {
          "indexed": true,
          "internalType": "address",
          "name": "owner",
          "type": "address"
        },
        {
          "indexed": true,
          "internalType": "address",
          "name": "spender",
          "type": "address"
        },
        {
          "indexed": false,
          "internalType": "uint256",
          "name": "value",
          "type": "uint256"
        }
      ],
      "name": "Approval",
      "type": "event"
    },
    {
      "anonymous": false,
      "inputs": [
        {
          "indexed": true,
          "internalType": "address",
          "name": "previousOwner",
          "type": "address"
        },
        {
          "indexed": true,
          "internalType": "address",
          "name": "newOwner",
          "type": "address"
        }
      ],
      "name": "OwnershipTransferred",
      "type": "event"
    },
    {
      "anonymous": false,
      "inputs": [
        {
          "indexed": false,
          "internalType": "address",
          "name": "account",
          "type": "address"
        }
      ],
      "name": "Paused",
      "type": "event"
    },
    {
      "anonymous": false,
      "inputs": [
        {
          "indexed": true,
          "internalType": "address",
          "name": "from",
          "type": "address"
        },
        {
          "indexed": true,
          "internalType": "address",
          "name": "to",
          "type": "address"
        },
        {
          "indexed": false,
          "internalType": "uint256",
          "name": "value",
          "type": "uint256"
        }
      ],
      "name": "Transfer",
      "type": "event"
    },
    {
      "anonymous": false,
      "inputs": [
        {
          "indexed": false,
          "internalType": "address",
          "name": "account",
          "type": "address"
        }
      ],
      "name": "Unpaused",
      "type": "event"
    },
    {
      "inputs": [
        {
          "internalType": "address",
          "name": "owner",
          "type": "address"
        },
        {
          "internalType": "address",
          "name": "spender",
          "type": "address"
        }
      ],
      "name": "allowance",
      "outputs": [
        {
          "internalType": "uint256",
          "name": "",
          "type": "uint256"
        }
      ],
      "stateMutability": "view",
      "type": "function"
    },
    {
      "inputs": [
        {
          "internalType": "address",
          "name": "spender",
          "type": "address"
        },
        {
          "internalType": "uint256",
          "name": "amount",
          "type": "uint256"
        }
      ],
      "name": "approve",
      "outputs": [
        {
          "internalType": "bool",
          "name": "",
          "type": "bool"
        }
      ],
      "stateMutability": "nonpayable",
      "type": "function"
    },
    {
      "inputs": [
        {
          "internalType": "address",
          "name": "account",
          "type": "address"
        }
      ],
      "name": "balanceOf",
      "outputs": [
        {
          "internalType": "uint256",
          "name": "",
          "type": "uint256"
        }
      ],
      "stateMutability": "view",
      "type": "function"
    },
    {
      "inputs": [],
      "name": "decimals",
      "outputs": [
        {
          "internalType": "uint8",
          "name": "",
          "type": "uint8"
        }
      ],
      "stateMutability": "view",
      "type": "function"
    },
    {
      "inputs": [
        {
          "internalType": "address",
          "name": "spender",
          "type": "address"
        },
        {
          "internalType": "uint256",
          "name": "subtractedValue",
          "type": "uint256"
        }
      ],
      "name": "decreaseAllowance",
      "outputs": [
        {
          "internalType": "bool",
          "name": "",
          "type": "bool"
        }
      ],
      "stateMutability": "nonpayable",
      "type": "function"
    },
    {
      "inputs": [],
      "name": "endTime",
      "outputs": [
        {
          "internalType": "uint256",
          "name": "",
          "type": "uint256"
        }
      ],
      "stateMutability": "view",
      "type": "function"
    },
    {
      "inputs": [
        {
          "internalType": "address",
          "name": "spender",
          "type": "address"
        },
        {
          "internalType": "uint256",
          "name": "addedValue",
          "type": "uint256"
        }
      ],
      "name": "increaseAllowance",
      "outputs": [
        {
          "internalType": "bool",
          "name": "",
          "type": "bool"
        }
      ],
      "stateMutability": "nonpayable",
      "type": "function"
    },
    {
      "inputs": [],
      "name": "name",
      "outputs": [
        {
          "internalType": "string",
          "name": "",
          "type": "string"
        }
      ],
      "stateMutability": "view",
      "type": "function"
    },
    {
      "inputs": [],
      "name": "owner",
      "outputs": [
        {
          "internalType": "address",
          "name": "",
          "type": "address"
        }
      ],
      "stateMutability": "view",
      "type": "function"
    },
    {
      "inputs": [],
      "name": "paused",
      "outputs": [
        {
          "internalType": "bool",
          "name": "",
          "type": "bool"
        }
      ],
      "stateMutability": "view",
      "type": "function"
    },
    {
      "inputs": [],
      "name": "renounceOwnership",
      "outputs": [],
      "stateMutability": "nonpayable",
      "type": "function"
    },
    {
      "inputs": [],
      "name": "startTime",
      "outputs": [
        {
          "internalType": "uint256",
          "name": "",
          "type": "uint256"
        }
      ],
      "stateMutability": "view",
      "type": "function"
    },
    {
      "inputs": [],
      "name": "symbol",
      "outputs": [
        {
          "internalType": "string",
          "name": "",
          "type": "string"
        }
      ],
      "stateMutability": "view",
      "type": "function"
    },
    {
      "inputs": [],
      "name": "totalSupply",
      "outputs": [
        {
          "internalType": "uint256",
          "name": "",
          "type": "uint256"
        }
      ],
      "stateMutability": "view",
      "type": "function"
    },
    {
      "inputs": [
        {
          "internalType": "address",
          "name": "recipient",
          "type": "address"
        },
        {
          "internalType": "uint256",
          "name": "amount",
          "type": "uint256"
        }
      ],
      "name": "transfer",
      "outputs": [
        {
          "internalType": "bool",
          "name": "",
          "type": "bool"
        }
      ],
      "stateMutability": "nonpayable",
      "type": "function"
    },
    {
      "inputs": [
        {
          "internalType": "address",
          "name": "sender",
          "type": "address"
        },
        {
          "internalType": "address",
          "name": "recipient",
          "type": "address"
        },
        {
          "internalType": "uint256",
          "name": "amount",
          "type": "uint256"
        }
      ],
      "name": "transferFrom",
      "outputs": [
        {
          "internalType": "bool",
          "name": "",
          "type": "bool"
        }
      ],
      "stateMutability": "nonpayable",
      "type": "function"
    },
    {
      "inputs": [
        {
          "internalType": "address",
          "name": "newOwner",
          "type": "address"
        }
      ],
      "name": "transferOwnership",
      "outputs": [],
      "stateMutability": "nonpayable",
      "type": "function"
    },
    {
      "inputs": [],
      "name": "pause",
      "outputs": [],
      "stateMutability": "nonpayable",
      "type": "function"
    },
    {
      "inputs": [],
      "name": "unpause",
      "outputs": [],
      "stateMutability": "nonpayable",
      "type": "function"
    }
  ],
  "bytecode": "0x60806040523480156200001157600080fd5b50604051620022dd380380620022dd8339818101604052810190620000379190620004dc565b6040518060400160405280600581526020017f544f4b454e0000000000000000000000000000000000000000000000000000008152506040518060400160405280600381526020017f544b4e00000000000000000000000000000000000000000000000000000000008152508160039080519060200190620000bb92919062000415565b508060049080519060200190620000d492919062000415565b5050506000600560006101000a81548160ff02191690831515021790555062000112620001066200013d60201b60201c565b6200014560201b60201c565b6200012733620186a06200020b60201b60201c565b8160068190555080600781905550505062000739565b600033905090565b6000600560019054906101000a900473ffffffffffffffffffffffffffffffffffffffff16905081600560016101000a81548173ffffffffffffffffffffffffffffffffffffffff021916908373ffffffffffffffffffffffffffffffffffffffff1602179055508173ffffffffffffffffffffffffffffffffffffffff168173ffffffffffffffffffffffffffffffffffffffff167f8be0079c531659141344cd1fd0a4f28419497f9722a3daafe3b4186f6b6457e060405160405180910390a35050565b600073ffffffffffffffffffffffffffffffffffffffff168273ffffffffffffffffffffffffffffffffffffffff1614156200027e576040517f08c379a00000000000000000000000000000000000000000000000000000000081526004016200027590620005d4565b60405180910390fd5b62000292600083836200038460201b60201c565b8060026000828254620002a6919062000624565b92505081905550806000808473ffffffffffffffffffffffffffffffffffffffff1673ffffffffffffffffffffffffffffffffffffffff1681526020019081526020016000206000828254620002fd919062000624565b925050819055508173ffffffffffffffffffffffffffffffffffffffff16600073ffffffffffffffffffffffffffffffffffffffff167fddf252ad1be2c89b69c2b068fc378daa952ba7f163c4a11628f55a4df523b3ef83604051620003649190620005f6565b60405180910390a36200038060008383620003f460201b60201c565b5050565b62000394620003f960201b60201c565b15620003d7576040517f08c379a0000000000000000000000000000000000000000000000000000000008152600401620003ce90620005b2565b60405180910390fd5b620003ef8383836200041060201b62000b671760201c565b505050565b505050565b6000600560009054906101000a900460ff16905090565b505050565b82805462000423906200068b565b90600052602060002090601f01602090048101928262000447576000855562000493565b82601f106200046257805160ff191683800117855562000493565b8280016001018555821562000493579182015b828111156200049257825182559160200191906001019062000475565b5b509050620004a29190620004a6565b5090565b5b80821115620004c1576000816000905550600101620004a7565b5090565b600081519050620004d6816200071f565b92915050565b60008060408385031215620004f057600080fd5b60006200050085828601620004c5565b92505060206200051385828601620004c5565b9150509250929050565b60006200052c60108362000613565b91507f5061757361626c653a20706175736564000000000000000000000000000000006000830152602082019050919050565b60006200056e601f8362000613565b91507f45524332303a206d696e7420746f20746865207a65726f2061646472657373006000830152602082019050919050565b620005ac8162000681565b82525050565b60006020820190508181036000830152620005cd816200051d565b9050919050565b60006020820190508181036000830152620005ef816200055f565b9050919050565b60006020820190506200060d6000830184620005a1565b92915050565b600082825260208201905092915050565b6000620006318262000681565b91506200063e8362000681565b9250827fffffffffffffffffffffffffffffffffffffffffffffffffffffffffffffffff03821115620006765762000675620006c1565b5b828201905092915050565b6000819050919050565b60006002820490506001821680620006a457607f821691505b60208210811415620006bb57620006ba620006f0565b5b50919050565b7f4e487b7100000000000000000000000000000000000000000000000000000000600052601160045260246000fd5b7f4e487b7100000000000000000000000000000000000000000000000000000000600052602260045260246000fd5b6200072a8162000681565b81146200073657600080fd5b50565b611b9480620007496000396000f3fe608060405234801561001057600080fd5b50600436106101215760003560e01c806370a08231116100ad57806395d89b411161007157806395d89b41146102d6578063a457c2d7146102f4578063a9059cbb14610324578063dd62ed3e14610354578063f2fde38b1461038457610121565b806370a0823114610256578063715018a61461028657806378e97925146102905780638456cb59146102ae5780638da5cb5b146102b857610121565b8063313ce567116100f4578063313ce567146101c25780633197cbb6146101e057806339509351146101fe5780633f4ba83a1461022e5780635c975abb1461023857610121565b806306fdde0314610126578063095ea7b31461014457806318160ddd1461017457806323b872dd14610192575b600080fd5b61012e6103a0565b60405161013b91906117dd565b60405180910390f35b61015e60048036038101906101599190611306565b610432565b60405161016b91906117c2565b60405180910390f35b61017c610450565b604051610189919061195f565b60405180910390f35b6101ac60048036038101906101a791906112b7565b61045a565b6040516101b991906117c2565b60405180910390f35b6101ca610552565b6040516101d7919061197a565b60405180910390f35b6101e861055b565b6040516101f5919061195f565b60405180910390f35b61021860048036038101906102139190611306565b610561565b60405161022591906117c2565b60405180910390f35b61023661060d565b005b6102406106a2565b60405161024d91906117c2565b60405180910390f35b610270600480360381019061026b9190611252565b6106b9565b60405161027d919061195f565b60405180910390f35b61028e610701565b005b610298610789565b6040516102a5919061195f565b60405180910390f35b6102b661078f565b005b6102c0610823565b6040516102cd91906117a7565b60405180910390f35b6102de61084d565b6040516102eb91906117dd565b60405180910390f35b61030e60048036038101906103099190611306565b6108df565b60405161031b91906117c2565b60405180910390f35b61033e60048036038101906103399190611306565b6109ca565b60405161034b91906117c2565b60405180910390f35b61036e6004803603810190610369919061127b565b6109e8565b60405161037b919061195f565b60405180910390f35b61039e60048036038101906103999190611252565b610a6f565b005b6060600380546103af90611a8f565b80601f01602080910402602001604051908101604052809291908181526020018280546103db90611a8f565b80156104285780601f106103fd57610100808354040283529160200191610428565b820191906000526020600020905b81548152906001019060200180831161040b57829003601f168201915b5050505050905090565b600061044661043f610b6c565b8484610b74565b6001905092915050565b6000600254905090565b6000610467848484610d3f565b6000600160008673ffffffffffffffffffffffffffffffffffffffff1673ffffffffffffffffffffffffffffffffffffffff16815260200190815260200160002060006104b2610b6c565b73ffffffffffffffffffffffffffffffffffffffff1673ffffffffffffffffffffffffffffffffffffffff16815260200190815260200160002054905082811015610532576040517f08c379a0000000000000000000000000000000000000000000000000000000008152600401610529906118bf565b60405180910390fd5b6105468561053e610b6c565b858403610b74565b60019150509392505050565b60006012905090565b60075481565b600061060361056e610b6c565b84846001600061057c610b6c565b73ffffffffffffffffffffffffffffffffffffffff1673ffffffffffffffffffffffffffffffffffffffff16815260200190815260200160002060008873ffffffffffffffffffffffffffffffffffffffff1673ffffffffffffffffffffffffffffffffffffffff168152602001908152602001600020546105fe91906119b1565b610b74565b6001905092915050565b610615610b6c565b73ffffffffffffffffffffffffffffffffffffffff16610633610823565b73ffffffffffffffffffffffffffffffffffffffff1614610689576040517f08c379a0000000000000000000000000000000000000000000000000000000008152600401610680906118df565b60405180910390fd5b60065442101561069857600080fd5b6106a0610fc0565b565b6000600560009054906101000a900460ff16905090565b60008060008373ffffffffffffffffffffffffffffffffffffffff1673ffffffffffffffffffffffffffffffffffffffff168152602001908152602001600020549050919050565b610709610b6c565b73ffffffffffffffffffffffffffffffffffffffff16610727610823565b73ffffffffffffffffffffffffffffffffffffffff161461077d576040517f08c379a0000000000000000000000000000000000000000000000000000000008152600401610774906118df565b60405180910390fd5b6107876000611062565b565b60065481565b610797610b6c565b73ffffffffffffffffffffffffffffffffffffffff166107b5610823565b73ffffffffffffffffffffffffffffffffffffffff161461080b576040517f08c379a0000000000000000000000000000000000000000000000000000000008152600401610802906118df565b60405180910390fd5b600754421061081957600080fd5b610821611128565b565b6000600560019054906101000a900473ffffffffffffffffffffffffffffffffffffffff16905090565b60606004805461085c90611a8f565b80601f016020809104026020016040519081016040528092919081815260200182805461088890611a8f565b80156108d55780601f106108aa576101008083540402835291602001916108d5565b820191906000526020600020905b8154815290600101906020018083116108b857829003601f168201915b5050505050905090565b600080600160006108ee610b6c565b73ffffffffffffffffffffffffffffffffffffffff1673ffffffffffffffffffffffffffffffffffffffff16815260200190815260200160002060008573ffffffffffffffffffffffffffffffffffffffff1673ffffffffffffffffffffffffffffffffffffffff168152602001908152602001600020549050828110156109ab576040517f08c379a00000000000000000000000000000000000000000000000000000000081526004016109a29061193f565b60405180910390fd5b6109bf6109b6610b6c565b85858403610b74565b600191505092915050565b60006109de6109d7610b6c565b8484610d3f565b6001905092915050565b6000600160008473ffffffffffffffffffffffffffffffffffffffff1673ffffffffffffffffffffffffffffffffffffffff16815260200190815260200160002060008373ffffffffffffffffffffffffffffffffffffffff1673ffffffffffffffffffffffffffffffffffffffff16815260200190815260200160002054905092915050565b610a77610b6c565b73ffffffffffffffffffffffffffffffffffffffff16610a95610823565b73ffffffffffffffffffffffffffffffffffffffff1614610aeb576040517f08c379a0000000000000000000000000000000000000000000000000000000008152600401610ae2906118df565b60405180910390fd5b600073ffffffffffffffffffffffffffffffffffffffff168173ffffffffffffffffffffffffffffffffffffffff161415610b5b576040517f08c379a0000000000000000000000000000000000000000000000000000000008152600401610b529061183f565b60405180910390fd5b610b6481611062565b50565b505050565b600033905090565b600073ffffffffffffffffffffffffffffffffffffffff168373ffffffffffffffffffffffffffffffffffffffff161415610be4576040517f08c379a0000000000000000000000000000000000000000000000000000000008152600401610bdb9061191f565b60405180910390fd5b600073ffffffffffffffffffffffffffffffffffffffff168273ffffffffffffffffffffffffffffffffffffffff161415610c54576040517f08c379a0000000000000000000000000000000000000000000000000000000008152600401610c4b9061185f565b60405180910390fd5b80600160008573ffffffffffffffffffffffffffffffffffffffff1673ffffffffffffffffffffffffffffffffffffffff16815260200190815260200160002060008473ffffffffffffffffffffffffffffffffffffffff1673ffffffffffffffffffffffffffffffffffffffff168152602001908152602001600020819055508173ffffffffffffffffffffffffffffffffffffffff168373ffffffffffffffffffffffffffffffffffffffff167f8c5be1e5ebec7d5bd14f71427d1e84f3dd0314c0f7b2291e5b200ac8c7c3b92583604051610d32919061195f565b60405180910390a3505050565b600073ffffffffffffffffffffffffffffffffffffffff168373ffffffffffffffffffffffffffffffffffffffff161415610daf576040517f08c379a0000000000000000000000000000000000000000000000000000000008152600401610da6906118ff565b60405180910390fd5b600073ffffffffffffffffffffffffffffffffffffffff168273ffffffffffffffffffffffffffffffffffffffff161415610e1f576040517f08c379a0000000000000000000000000000000000000000000000000000000008152600401610e16906117ff565b60405180910390fd5b610e2a8383836111cb565b60008060008573ffffffffffffffffffffffffffffffffffffffff1673ffffffffffffffffffffffffffffffffffffffff16815260200190815260200160002054905081811015610eb0576040517f08c379a0000000000000000000000000000000000000000000000000000000008152600401610ea79061187f565b60405180910390fd5b8181036000808673ffffffffffffffffffffffffffffffffffffffff1673ffffffffffffffffffffffffffffffffffffffff16815260200190815260200160002081905550816000808573ffffffffffffffffffffffffffffffffffffffff1673ffffffffffffffffffffffffffffffffffffffff1681526020019081526020016000206000828254610f4391906119b1565b925050819055508273ffffffffffffffffffffffffffffffffffffffff168473ffffffffffffffffffffffffffffffffffffffff167fddf252ad1be2c89b69c2b068fc378daa952ba7f163c4a11628f55a4df523b3ef84604051610fa7919061195f565b60405180910390a3610fba848484611223565b50505050565b610fc86106a2565b611007576040517f08c379a0000000000000000000000000000000000000000000000000000000008152600401610ffe9061181f565b60405180910390fd5b6000600560006101000a81548160ff0219169083151502179055507f5db9ee0a495bf2e6ff9c91a7834c1ba4fdd244a5e8aa4e537bd38aeae4b073aa61104b610b6c565b60405161105891906117a7565b60405180910390a1565b6000600560019054906101000a900473ffffffffffffffffffffffffffffffffffffffff16905081600560016101000a81548173ffffffffffffffffffffffffffffffffffffffff021916908373ffffffffffffffffffffffffffffffffffffffff1602179055508173ffffffffffffffffffffffffffffffffffffffff168173ffffffffffffffffffffffffffffffffffffffff167f8be0079c531659141344cd1fd0a4f28419497f9722a3daafe3b4186f6b6457e060405160405180910390a35050565b6111306106a2565b15611170576040517f08c379a00000000000000000000000000000000000000000000000000000000081526004016111679061189f565b60405180910390fd5b6001600560006101000a81548160ff0219169083151502179055507f62e78cea01bee320cd4e420270b5ea74000d11b0c9f74754ebdbfc544b05a2586111b4610b6c565b6040516111c191906117a7565b60405180910390a1565b6111d36106a2565b15611213576040517f08c379a000000000000000000000000000000000000000000000000000000000815260040161120a9061189f565b60405180910390fd5b61121e838383610b67565b505050565b505050565b60008135905061123781611b30565b92915050565b60008135905061124c81611b47565b92915050565b60006020828403121561126457600080fd5b600061127284828501611228565b91505092915050565b6000806040838503121561128e57600080fd5b600061129c85828601611228565b92505060206112ad85828601611228565b9150509250929050565b6000806000606084860312156112cc57600080fd5b60006112da86828701611228565b93505060206112eb86828701611228565b92505060406112fc8682870161123d565b9150509250925092565b6000806040838503121561131957600080fd5b600061132785828601611228565b92505060206113388582860161123d565b9150509250929050565b61134b81611a07565b82525050565b61135a81611a19565b82525050565b600061136b82611995565b61137581856119a0565b9350611385818560208601611a5c565b61138e81611b1f565b840191505092915050565b60006113a66023836119a0565b91507f45524332303a207472616e7366657220746f20746865207a65726f206164647260008301527f65737300000000000000000000000000000000000000000000000000000000006020830152604082019050919050565b600061140c6014836119a0565b91507f5061757361626c653a206e6f74207061757365640000000000000000000000006000830152602082019050919050565b600061144c6026836119a0565b91507f4f776e61626c653a206e6577206f776e657220697320746865207a65726f206160008301527f64647265737300000000000000000000000000000000000000000000000000006020830152604082019050919050565b60006114b26022836119a0565b91507f45524332303a20617070726f766520746f20746865207a65726f20616464726560008301527f73730000000000000000000000000000000000000000000000000000000000006020830152604082019050919050565b60006115186026836119a0565b91507f45524332303a207472616e7366657220616d6f756e742065786365656473206260008301527f616c616e636500000000000000000000000000000000000000000000000000006020830152604082019050919050565b600061157e6010836119a0565b91507f5061757361626c653a20706175736564000000000000000000000000000000006000830152602082019050919050565b60006115be6028836119a0565b91507f45524332303a207472616e7366657220616d6f756e742065786365656473206160008301527f6c6c6f77616e63650000000000000000000000000000000000000000000000006020830152604082019050919050565b60006116246020836119a0565b91507f4f776e61626c653a2063616c6c6572206973206e6f7420746865206f776e65726000830152602082019050919050565b60006116646025836119a0565b91507f45524332303a207472616e736665722066726f6d20746865207a65726f20616460008301527f64726573730000000000000000000000000000000000000000000000000000006020830152604082019050919050565b60006116ca6024836119a0565b91507f45524332303a20617070726f76652066726f6d20746865207a65726f2061646460008301527f72657373000000000000000000000000000000000000000000000000000000006020830152604082019050919050565b60006117306025836119a0565b91507f45524332303a2064656372656173656420616c6c6f77616e63652062656c6f7760008301527f207a65726f0000000000000000000000000000000000000000000000000000006020830152604082019050919050565b61179281611a45565b82525050565b6117a181611a4f565b82525050565b60006020820190506117bc6000830184611342565b92915050565b60006020820190506117d76000830184611351565b92915050565b600060208201905081810360008301526117f78184611360565b905092915050565b6000602082019050818103600083015261181881611399565b9050919050565b60006020820190508181036000830152611838816113ff565b9050919050565b600060208201905081810360008301526118588161143f565b9050919050565b60006020820190508181036000830152611878816114a5565b9050919050565b600060208201905081810360008301526118988161150b565b9050919050565b600060208201905081810360008301526118b881611571565b9050919050565b600060208201905081810360008301526118d8816115b1565b9050919050565b600060208201905081810360008301526118f881611617565b9050919050565b6000602082019050818103600083015261191881611657565b9050919050565b60006020820190508181036000830152611938816116bd565b9050919050565b6000602082019050818103600083015261195881611723565b9050919050565b60006020820190506119746000830184611789565b92915050565b600060208201905061198f6000830184611798565b92915050565b600081519050919050565b600082825260208201905092915050565b60006119bc82611a45565b91506119c783611a45565b9250827fffffffffffffffffffffffffffffffffffffffffffffffffffffffffffffffff038211156119fc576119fb611ac1565b5b828201905092915050565b6000611a1282611a25565b9050919050565b60008115159050919050565b600073ffffffffffffffffffffffffffffffffffffffff82169050919050565b6000819050919050565b600060ff82169050919050565b60005b83811015611a7a578082015181840152602081019050611a5f565b83811115611a89576000848401525b50505050565b60006002820490506001821680611aa757607f821691505b60208210811415611abb57611aba611af0565b5b50919050565b7f4e487b7100000000000000000000000000000000000000000000000000000000600052601160045260246000fd5b7f4e487b7100000000000000000000000000000000000000000000000000000000600052602260045260246000fd5b6000601f19601f8301169050919050565b611b3981611a07565b8114611b4457600080fd5b50565b611b5081611a45565b8114611b5b57600080fd5b5056fea2646970667358221220d8d9e65357808cc6678ec8ed1cc29af4df6983486501245f9635f906f8615cac64736f6c63430008000033",
  "immutableReferences": {},
  "source": "//SPDX-License-Identifier: UNLICENSED\r\npragma solidity ^0.8.0;\r\nimport \"@openzeppelin/contracts/token/ERC20/ERC20.sol\";\r\nimport \"@openzeppelin/contracts/security/Pausable.sol\";\r\nimport \"@openzeppelin/contracts/access/Ownable.sol\";\r\n\r\n\r\ncontract MockToken is ERC20, Pausable, Ownable{\r\n    uint256 public startTime;\r\n    uint256 public endTime;\r\n\r\n    constructor(uint _startTime, uint _endTime)  ERC20(\"TOKEN\", \"TKN\") {\r\n     _mint(msg.sender,100000);\r\n      startTime = _startTime;\r\n      endTime = _endTime;\r\n    }\r\n//pause contract after specified endTime\r\n  function pause() public onlyOwner {\r\n    require(block.timestamp < endTime);\r\n        _pause();\r\n    }\r\n//unpause contract after specified startTime\r\n    function unpause() public onlyOwner {\r\n      require(block.timestamp >= startTime);\r\n        _unpause();\r\n    }\r\n//override _beforeTransferFunction to only be called when not paused\r\nfunction _beforeTokenTransfer(address from, address to, uint256 amount) internal\r\n        whenNotPaused\r\n        override\r\n    {\r\n        super._beforeTokenTransfer(from, to, amount);\r\n    }\r\n\r\n}\r\n",
  "sourcePath": "C:\\Users\\jjrab\\OneDrive\\Desktop\\Dappdev\\Interactive-Challenge\\contracts\\MockToken.sol",
  "compiler": {
    "name": "solc",
    "version": "0.8.0+commit.c7dfd78e.Emscripten.clang"
  },
  "schemaVersion": "3.4.3",
  "updatedAt": "2021-11-22T22:12:46.438Z",
  "devdoc": {
    "kind": "dev",
    "methods": {
      "allowance(address,address)": {
        "details": "See {IERC20-allowance}."
      },
      "approve(address,uint256)": {
        "details": "See {IERC20-approve}. Requirements: - `spender` cannot be the zero address."
      },
      "balanceOf(address)": {
        "details": "See {IERC20-balanceOf}."
      },
      "decimals()": {
        "details": "Returns the number of decimals used to get its user representation. For example, if `decimals` equals `2`, a balance of `505` tokens should be displayed to a user as `5.05` (`505 / 10 ** 2`). Tokens usually opt for a value of 18, imitating the relationship between Ether and Wei. This is the value {ERC20} uses, unless this function is overridden; NOTE: This information is only used for _display_ purposes: it in no way affects any of the arithmetic of the contract, including {IERC20-balanceOf} and {IERC20-transfer}."
      },
      "decreaseAllowance(address,uint256)": {
        "details": "Atomically decreases the allowance granted to `spender` by the caller. This is an alternative to {approve} that can be used as a mitigation for problems described in {IERC20-approve}. Emits an {Approval} event indicating the updated allowance. Requirements: - `spender` cannot be the zero address. - `spender` must have allowance for the caller of at least `subtractedValue`."
      },
      "increaseAllowance(address,uint256)": {
        "details": "Atomically increases the allowance granted to `spender` by the caller. This is an alternative to {approve} that can be used as a mitigation for problems described in {IERC20-approve}. Emits an {Approval} event indicating the updated allowance. Requirements: - `spender` cannot be the zero address."
      },
      "name()": {
        "details": "Returns the name of the token."
      },
      "owner()": {
        "details": "Returns the address of the current owner."
      },
      "paused()": {
        "details": "Returns true if the contract is paused, and false otherwise."
      },
      "renounceOwnership()": {
        "details": "Leaves the contract without owner. It will not be possible to call `onlyOwner` functions anymore. Can only be called by the current owner. NOTE: Renouncing ownership will leave the contract without an owner, thereby removing any functionality that is only available to the owner."
      },
      "symbol()": {
        "details": "Returns the symbol of the token, usually a shorter version of the name."
      },
      "totalSupply()": {
        "details": "See {IERC20-totalSupply}."
      },
      "transfer(address,uint256)": {
        "details": "See {IERC20-transfer}. Requirements: - `recipient` cannot be the zero address. - the caller must have a balance of at least `amount`."
      },
      "transferFrom(address,address,uint256)": {
        "details": "See {IERC20-transferFrom}. Emits an {Approval} event indicating the updated allowance. This is not required by the EIP. See the note at the beginning of {ERC20}. Requirements: - `sender` and `recipient` cannot be the zero address. - `sender` must have a balance of at least `amount`. - the caller must have allowance for ``sender``'s tokens of at least `amount`."
      },
      "transferOwnership(address)": {
        "details": "Transfers ownership of the contract to a new account (`newOwner`). Can only be called by the current owner."
      }
    },
    "version": 1
  },
  "userdoc": {
    "kind": "user",
    "methods": {},
    "version": 1
  }
}