{
  "contractName": "MockToken",
  "abi": [
    {
      "inputs": [
        {
          "internalType": "uint256",
          "name": "_startTime",
          "type": "uint256"
        },
        {
          "internalType": "uint256",
          "name": "_endTime",
          "type": "uint256"
        }
      ],
      "stateMutability": "nonpayable",
      "type": "constructor"
    },
    {
      "anonymous": false,
      "inputs": [
        {
          "indexed": true,
          "internalType": "address",
          "name": "owner",
          "type": "address"
        },
        {
          "indexed": true,
          "internalType": "address",
          "name": "spender",
          "type": "address"
        },
        {
          "indexed": false,
          "internalType": "uint256",
          "name": "value",
          "type": "uint256"
        }
      ],
      "name": "Approval",
      "type": "event"
    },
    {
      "anonymous": false,
      "inputs": [
        {
          "indexed": true,
          "internalType": "address",
          "name": "previousOwner",
          "type": "address"
        },
        {
          "indexed": true,
          "internalType": "address",
          "name": "newOwner",
          "type": "address"
        }
      ],
      "name": "OwnershipTransferred",
      "type": "event"
    },
    {
      "anonymous": false,
      "inputs": [
        {
          "indexed": false,
          "internalType": "bool",
          "name": "status",
          "type": "bool"
        },
        {
          "indexed": false,
          "internalType": "uint256",
          "name": "time",
          "type": "uint256"
        }
      ],
      "name": "Paused",
      "type": "event"
    },
    {
      "anonymous": false,
      "inputs": [
        {
          "indexed": false,
          "internalType": "address",
          "name": "account",
          "type": "address"
        }
      ],
      "name": "Paused",
      "type": "event"
    },
    {
      "anonymous": false,
      "inputs": [
        {
          "indexed": true,
          "internalType": "address",
          "name": "from",
          "type": "address"
        },
        {
          "indexed": true,
          "internalType": "address",
          "name": "to",
          "type": "address"
        },
        {
          "indexed": false,
          "internalType": "uint256",
          "name": "value",
          "type": "uint256"
        }
      ],
      "name": "Transfer",
      "type": "event"
    },
    {
      "anonymous": false,
      "inputs": [
        {
          "indexed": false,
          "internalType": "bool",
          "name": "status",
          "type": "bool"
        },
        {
          "indexed": false,
          "internalType": "uint256",
          "name": "time",
          "type": "uint256"
        }
      ],
      "name": "Unpaused",
      "type": "event"
    },
    {
      "anonymous": false,
      "inputs": [
        {
          "indexed": false,
          "internalType": "address",
          "name": "account",
          "type": "address"
        }
      ],
      "name": "Unpaused",
      "type": "event"
    },
    {
      "inputs": [
        {
          "internalType": "address",
          "name": "owner",
          "type": "address"
        },
        {
          "internalType": "address",
          "name": "spender",
          "type": "address"
        }
      ],
      "name": "allowance",
      "outputs": [
        {
          "internalType": "uint256",
          "name": "",
          "type": "uint256"
        }
      ],
      "stateMutability": "view",
      "type": "function",
      "constant": true
    },
    {
      "inputs": [
        {
          "internalType": "address",
          "name": "spender",
          "type": "address"
        },
        {
          "internalType": "uint256",
          "name": "amount",
          "type": "uint256"
        }
      ],
      "name": "approve",
      "outputs": [
        {
          "internalType": "bool",
          "name": "",
          "type": "bool"
        }
      ],
      "stateMutability": "nonpayable",
      "type": "function"
    },
    {
      "inputs": [
        {
          "internalType": "address",
          "name": "account",
          "type": "address"
        }
      ],
      "name": "balanceOf",
      "outputs": [
        {
          "internalType": "uint256",
          "name": "",
          "type": "uint256"
        }
      ],
      "stateMutability": "view",
      "type": "function",
      "constant": true
    },
    {
      "inputs": [],
      "name": "decimals",
      "outputs": [
        {
          "internalType": "uint8",
          "name": "",
          "type": "uint8"
        }
      ],
      "stateMutability": "view",
      "type": "function",
      "constant": true
    },
    {
      "inputs": [
        {
          "internalType": "address",
          "name": "spender",
          "type": "address"
        },
        {
          "internalType": "uint256",
          "name": "subtractedValue",
          "type": "uint256"
        }
      ],
      "name": "decreaseAllowance",
      "outputs": [
        {
          "internalType": "bool",
          "name": "",
          "type": "bool"
        }
      ],
      "stateMutability": "nonpayable",
      "type": "function"
    },
    {
      "inputs": [],
      "name": "endTime",
      "outputs": [
        {
          "internalType": "uint256",
          "name": "",
          "type": "uint256"
        }
      ],
      "stateMutability": "view",
      "type": "function",
      "constant": true
    },
    {
      "inputs": [
        {
          "internalType": "address",
          "name": "spender",
          "type": "address"
        },
        {
          "internalType": "uint256",
          "name": "addedValue",
          "type": "uint256"
        }
      ],
      "name": "increaseAllowance",
      "outputs": [
        {
          "internalType": "bool",
          "name": "",
          "type": "bool"
        }
      ],
      "stateMutability": "nonpayable",
      "type": "function"
    },
    {
      "inputs": [],
      "name": "name",
      "outputs": [
        {
          "internalType": "string",
          "name": "",
          "type": "string"
        }
      ],
      "stateMutability": "view",
      "type": "function",
      "constant": true
    },
    {
      "inputs": [],
      "name": "owner",
      "outputs": [
        {
          "internalType": "address",
          "name": "",
          "type": "address"
        }
      ],
      "stateMutability": "view",
      "type": "function",
      "constant": true
    },
    {
      "inputs": [],
      "name": "paused",
      "outputs": [
        {
          "internalType": "bool",
          "name": "",
          "type": "bool"
        }
      ],
      "stateMutability": "view",
      "type": "function",
      "constant": true
    },
    {
      "inputs": [],
      "name": "renounceOwnership",
      "outputs": [],
      "stateMutability": "nonpayable",
      "type": "function"
    },
    {
      "inputs": [],
      "name": "startTime",
      "outputs": [
        {
          "internalType": "uint256",
          "name": "",
          "type": "uint256"
        }
      ],
      "stateMutability": "view",
      "type": "function",
      "constant": true
    },
    {
      "inputs": [],
      "name": "symbol",
      "outputs": [
        {
          "internalType": "string",
          "name": "",
          "type": "string"
        }
      ],
      "stateMutability": "view",
      "type": "function",
      "constant": true
    },
    {
      "inputs": [],
      "name": "totalSupply",
      "outputs": [
        {
          "internalType": "uint256",
          "name": "",
          "type": "uint256"
        }
      ],
      "stateMutability": "view",
      "type": "function",
      "constant": true
    },
    {
      "inputs": [
        {
          "internalType": "address",
          "name": "recipient",
          "type": "address"
        },
        {
          "internalType": "uint256",
          "name": "amount",
          "type": "uint256"
        }
      ],
      "name": "transfer",
      "outputs": [
        {
          "internalType": "bool",
          "name": "",
          "type": "bool"
        }
      ],
      "stateMutability": "nonpayable",
      "type": "function"
    },
    {
      "inputs": [
        {
          "internalType": "address",
          "name": "sender",
          "type": "address"
        },
        {
          "internalType": "address",
          "name": "recipient",
          "type": "address"
        },
        {
          "internalType": "uint256",
          "name": "amount",
          "type": "uint256"
        }
      ],
      "name": "transferFrom",
      "outputs": [
        {
          "internalType": "bool",
          "name": "",
          "type": "bool"
        }
      ],
      "stateMutability": "nonpayable",
      "type": "function"
    },
    {
      "inputs": [
        {
          "internalType": "address",
          "name": "newOwner",
          "type": "address"
        }
      ],
      "name": "transferOwnership",
      "outputs": [],
      "stateMutability": "nonpayable",
      "type": "function"
    },
    {
      "inputs": [],
      "name": "pause",
      "outputs": [],
      "stateMutability": "nonpayable",
      "type": "function"
    },
    {
      "inputs": [],
      "name": "unpause",
      "outputs": [],
      "stateMutability": "nonpayable",
      "type": "function"
    }
  ],
  "bytecode": "0x60806040523480156200001157600080fd5b50604051620024f9380380620024f98339818101604052810190620000379190620004e3565b6040518060400160405280600581526020017f544f4b454e0000000000000000000000000000000000000000000000000000008152506040518060400160405280600381526020017f544b4e00000000000000000000000000000000000000000000000000000000008152508160039080519060200190620000bb9291906200041c565b508060049080519060200190620000d49291906200041c565b5050506000600560006101000a81548160ff02191690831515021790555062000112620001066200014460201b60201c565b6200014c60201b60201c565b6200012e3369d3c21bcecceda10000006200021260201b60201c565b8160068190555080600781905550505062000740565b600033905090565b6000600560019054906101000a900473ffffffffffffffffffffffffffffffffffffffff16905081600560016101000a81548173ffffffffffffffffffffffffffffffffffffffff021916908373ffffffffffffffffffffffffffffffffffffffff1602179055508173ffffffffffffffffffffffffffffffffffffffff168173ffffffffffffffffffffffffffffffffffffffff167f8be0079c531659141344cd1fd0a4f28419497f9722a3daafe3b4186f6b6457e060405160405180910390a35050565b600073ffffffffffffffffffffffffffffffffffffffff168273ffffffffffffffffffffffffffffffffffffffff16141562000285576040517f08c379a00000000000000000000000000000000000000000000000000000000081526004016200027c90620005db565b60405180910390fd5b62000299600083836200038b60201b60201c565b8060026000828254620002ad91906200062b565b92505081905550806000808473ffffffffffffffffffffffffffffffffffffffff1673ffffffffffffffffffffffffffffffffffffffff16815260200190815260200160002060008282546200030491906200062b565b925050819055508173ffffffffffffffffffffffffffffffffffffffff16600073ffffffffffffffffffffffffffffffffffffffff167fddf252ad1be2c89b69c2b068fc378daa952ba7f163c4a11628f55a4df523b3ef836040516200036b9190620005fd565b60405180910390a36200038760008383620003fb60201b60201c565b5050565b6200039b6200040060201b60201c565b15620003de576040517f08c379a0000000000000000000000000000000000000000000000000000000008152600401620003d590620005b9565b60405180910390fd5b620003f68383836200041760201b62000c931760201c565b505050565b505050565b6000600560009054906101000a900460ff16905090565b505050565b8280546200042a9062000692565b90600052602060002090601f0160209004810192826200044e57600085556200049a565b82601f106200046957805160ff19168380011785556200049a565b828001600101855582156200049a579182015b82811115620004995782518255916020019190600101906200047c565b5b509050620004a99190620004ad565b5090565b5b80821115620004c8576000816000905550600101620004ae565b5090565b600081519050620004dd8162000726565b92915050565b60008060408385031215620004f757600080fd5b60006200050785828601620004cc565b92505060206200051a85828601620004cc565b9150509250929050565b6000620005336010836200061a565b91507f5061757361626c653a20706175736564000000000000000000000000000000006000830152602082019050919050565b600062000575601f836200061a565b91507f45524332303a206d696e7420746f20746865207a65726f2061646472657373006000830152602082019050919050565b620005b38162000688565b82525050565b60006020820190508181036000830152620005d48162000524565b9050919050565b60006020820190508181036000830152620005f68162000566565b9050919050565b6000602082019050620006146000830184620005a8565b92915050565b600082825260208201905092915050565b6000620006388262000688565b9150620006458362000688565b9250827fffffffffffffffffffffffffffffffffffffffffffffffffffffffffffffffff038211156200067d576200067c620006c8565b5b828201905092915050565b6000819050919050565b60006002820490506001821680620006ab57607f821691505b60208210811415620006c257620006c1620006f7565b5b50919050565b7f4e487b7100000000000000000000000000000000000000000000000000000000600052601160045260246000fd5b7f4e487b7100000000000000000000000000000000000000000000000000000000600052602260045260246000fd5b620007318162000688565b81146200073d57600080fd5b50565b611da980620007506000396000f3fe608060405234801561001057600080fd5b50600436106101215760003560e01c806370a08231116100ad57806395d89b411161007157806395d89b41146102d6578063a457c2d7146102f4578063a9059cbb14610324578063dd62ed3e14610354578063f2fde38b1461038457610121565b806370a0823114610256578063715018a61461028657806378e97925146102905780638456cb59146102ae5780638da5cb5b146102b857610121565b8063313ce567116100f4578063313ce567146101c25780633197cbb6146101e057806339509351146101fe5780633f4ba83a1461022e5780635c975abb1461023857610121565b806306fdde0314610126578063095ea7b31461014457806318160ddd1461017457806323b872dd14610192575b600080fd5b61012e6103a0565b60405161013b91906119b2565b60405180910390f35b61015e60048036038101906101599190611432565b610432565b60405161016b919061196e565b60405180910390f35b61017c610450565b6040516101899190611b74565b60405180910390f35b6101ac60048036038101906101a791906113e3565b61045a565b6040516101b9919061196e565b60405180910390f35b6101ca610552565b6040516101d79190611b8f565b60405180910390f35b6101e861055b565b6040516101f59190611b74565b60405180910390f35b61021860048036038101906102139190611432565b610561565b604051610225919061196e565b60405180910390f35b61023661060d565b005b61024061075b565b60405161024d919061196e565b60405180910390f35b610270600480360381019061026b919061137e565b610772565b60405161027d9190611b74565b60405180910390f35b61028e6107ba565b005b610298610842565b6040516102a59190611b74565b60405180910390f35b6102b6610848565b005b6102c061094f565b6040516102cd9190611953565b60405180910390f35b6102de610979565b6040516102eb91906119b2565b60405180910390f35b61030e60048036038101906103099190611432565b610a0b565b60405161031b919061196e565b60405180910390f35b61033e60048036038101906103399190611432565b610af6565b60405161034b919061196e565b60405180910390f35b61036e600480360381019061036991906113a7565b610b14565b60405161037b9190611b74565b60405180910390f35b61039e6004803603810190610399919061137e565b610b9b565b005b6060600380546103af90611ca4565b80601f01602080910402602001604051908101604052809291908181526020018280546103db90611ca4565b80156104285780601f106103fd57610100808354040283529160200191610428565b820191906000526020600020905b81548152906001019060200180831161040b57829003601f168201915b5050505050905090565b600061044661043f610c98565b8484610ca0565b6001905092915050565b6000600254905090565b6000610467848484610e6b565b6000600160008673ffffffffffffffffffffffffffffffffffffffff1673ffffffffffffffffffffffffffffffffffffffff16815260200190815260200160002060006104b2610c98565b73ffffffffffffffffffffffffffffffffffffffff1673ffffffffffffffffffffffffffffffffffffffff16815260200190815260200160002054905082811015610532576040517f08c379a000000000000000000000000000000000000000000000000000000000815260040161052990611ad4565b60405180910390fd5b6105468561053e610c98565b858403610ca0565b60019150509392505050565b60006012905090565b60075481565b600061060361056e610c98565b84846001600061057c610c98565b73ffffffffffffffffffffffffffffffffffffffff1673ffffffffffffffffffffffffffffffffffffffff16815260200190815260200160002060008873ffffffffffffffffffffffffffffffffffffffff1673ffffffffffffffffffffffffffffffffffffffff168152602001908152602001600020546105fe9190611bc6565b610ca0565b6001905092915050565b610615610c98565b73ffffffffffffffffffffffffffffffffffffffff1661063361094f565b73ffffffffffffffffffffffffffffffffffffffff1614610689576040517f08c379a000000000000000000000000000000000000000000000000000000000815260040161068090611af4565b60405180910390fd5b61069161075b565b6106d0576040517f08c379a00000000000000000000000000000000000000000000000000000000081526004016106c7906119f4565b60405180910390fd5b600654421015610715576040517f08c379a000000000000000000000000000000000000000000000000000000000815260040161070c90611a94565b60405180910390fd5b7f31258a68ade845945affa5c4da884d3976d2163be1b3797ffc7d18bdbf79ae4b6000600654604051610749929190611989565b60405180910390a16107596110ec565b565b6000600560009054906101000a900460ff16905090565b60008060008373ffffffffffffffffffffffffffffffffffffffff1673ffffffffffffffffffffffffffffffffffffffff168152602001908152602001600020549050919050565b6107c2610c98565b73ffffffffffffffffffffffffffffffffffffffff166107e061094f565b73ffffffffffffffffffffffffffffffffffffffff1614610836576040517f08c379a000000000000000000000000000000000000000000000000000000000815260040161082d90611af4565b60405180910390fd5b610840600061118e565b565b60065481565b610850610c98565b73ffffffffffffffffffffffffffffffffffffffff1661086e61094f565b73ffffffffffffffffffffffffffffffffffffffff16146108c4576040517f08c379a00000000000000000000000000000000000000000000000000000000081526004016108bb90611af4565b60405180910390fd5b600754421115610909576040517f08c379a000000000000000000000000000000000000000000000000000000000815260040161090090611a14565b60405180910390fd5b7f1c12c6ba098be6b0fd85dc545e372034d6dbffc61364b8aeb45f7bb253553c4d600160075460405161093d929190611989565b60405180910390a161094d611254565b565b6000600560019054906101000a900473ffffffffffffffffffffffffffffffffffffffff16905090565b60606004805461098890611ca4565b80601f01602080910402602001604051908101604052809291908181526020018280546109b490611ca4565b8015610a015780601f106109d657610100808354040283529160200191610a01565b820191906000526020600020905b8154815290600101906020018083116109e457829003601f168201915b5050505050905090565b60008060016000610a1a610c98565b73ffffffffffffffffffffffffffffffffffffffff1673ffffffffffffffffffffffffffffffffffffffff16815260200190815260200160002060008573ffffffffffffffffffffffffffffffffffffffff1673ffffffffffffffffffffffffffffffffffffffff16815260200190815260200160002054905082811015610ad7576040517f08c379a0000000000000000000000000000000000000000000000000000000008152600401610ace90611b54565b60405180910390fd5b610aeb610ae2610c98565b85858403610ca0565b600191505092915050565b6000610b0a610b03610c98565b8484610e6b565b6001905092915050565b6000600160008473ffffffffffffffffffffffffffffffffffffffff1673ffffffffffffffffffffffffffffffffffffffff16815260200190815260200160002060008373ffffffffffffffffffffffffffffffffffffffff1673ffffffffffffffffffffffffffffffffffffffff16815260200190815260200160002054905092915050565b610ba3610c98565b73ffffffffffffffffffffffffffffffffffffffff16610bc161094f565b73ffffffffffffffffffffffffffffffffffffffff1614610c17576040517f08c379a0000000000000000000000000000000000000000000000000000000008152600401610c0e90611af4565b60405180910390fd5b600073ffffffffffffffffffffffffffffffffffffffff168173ffffffffffffffffffffffffffffffffffffffff161415610c87576040517f08c379a0000000000000000000000000000000000000000000000000000000008152600401610c7e90611a34565b60405180910390fd5b610c908161118e565b50565b505050565b600033905090565b600073ffffffffffffffffffffffffffffffffffffffff168373ffffffffffffffffffffffffffffffffffffffff161415610d10576040517f08c379a0000000000000000000000000000000000000000000000000000000008152600401610d0790611b34565b60405180910390fd5b600073ffffffffffffffffffffffffffffffffffffffff168273ffffffffffffffffffffffffffffffffffffffff161415610d80576040517f08c379a0000000000000000000000000000000000000000000000000000000008152600401610d7790611a54565b60405180910390fd5b80600160008573ffffffffffffffffffffffffffffffffffffffff1673ffffffffffffffffffffffffffffffffffffffff16815260200190815260200160002060008473ffffffffffffffffffffffffffffffffffffffff1673ffffffffffffffffffffffffffffffffffffffff168152602001908152602001600020819055508173ffffffffffffffffffffffffffffffffffffffff168373ffffffffffffffffffffffffffffffffffffffff167f8c5be1e5ebec7d5bd14f71427d1e84f3dd0314c0f7b2291e5b200ac8c7c3b92583604051610e5e9190611b74565b60405180910390a3505050565b600073ffffffffffffffffffffffffffffffffffffffff168373ffffffffffffffffffffffffffffffffffffffff161415610edb576040517f08c379a0000000000000000000000000000000000000000000000000000000008152600401610ed290611b14565b60405180910390fd5b600073ffffffffffffffffffffffffffffffffffffffff168273ffffffffffffffffffffffffffffffffffffffff161415610f4b576040517f08c379a0000000000000000000000000000000000000000000000000000000008152600401610f42906119d4565b60405180910390fd5b610f568383836112f7565b60008060008573ffffffffffffffffffffffffffffffffffffffff1673ffffffffffffffffffffffffffffffffffffffff16815260200190815260200160002054905081811015610fdc576040517f08c379a0000000000000000000000000000000000000000000000000000000008152600401610fd390611a74565b60405180910390fd5b8181036000808673ffffffffffffffffffffffffffffffffffffffff1673ffffffffffffffffffffffffffffffffffffffff16815260200190815260200160002081905550816000808573ffffffffffffffffffffffffffffffffffffffff1673ffffffffffffffffffffffffffffffffffffffff168152602001908152602001600020600082825461106f9190611bc6565b925050819055508273ffffffffffffffffffffffffffffffffffffffff168473ffffffffffffffffffffffffffffffffffffffff167fddf252ad1be2c89b69c2b068fc378daa952ba7f163c4a11628f55a4df523b3ef846040516110d39190611b74565b60405180910390a36110e684848461134f565b50505050565b6110f461075b565b611133576040517f08c379a000000000000000000000000000000000000000000000000000000000815260040161112a906119f4565b60405180910390fd5b6000600560006101000a81548160ff0219169083151502179055507f5db9ee0a495bf2e6ff9c91a7834c1ba4fdd244a5e8aa4e537bd38aeae4b073aa611177610c98565b6040516111849190611953565b60405180910390a1565b6000600560019054906101000a900473ffffffffffffffffffffffffffffffffffffffff16905081600560016101000a81548173ffffffffffffffffffffffffffffffffffffffff021916908373ffffffffffffffffffffffffffffffffffffffff1602179055508173ffffffffffffffffffffffffffffffffffffffff168173ffffffffffffffffffffffffffffffffffffffff167f8be0079c531659141344cd1fd0a4f28419497f9722a3daafe3b4186f6b6457e060405160405180910390a35050565b61125c61075b565b1561129c576040517f08c379a000000000000000000000000000000000000000000000000000000000815260040161129390611ab4565b60405180910390fd5b6001600560006101000a81548160ff0219169083151502179055507f62e78cea01bee320cd4e420270b5ea74000d11b0c9f74754ebdbfc544b05a2586112e0610c98565b6040516112ed9190611953565b60405180910390a1565b6112ff61075b565b1561133f576040517f08c379a000000000000000000000000000000000000000000000000000000000815260040161133690611ab4565b60405180910390fd5b61134a838383610c93565b505050565b505050565b60008135905061136381611d45565b92915050565b60008135905061137881611d5c565b92915050565b60006020828403121561139057600080fd5b600061139e84828501611354565b91505092915050565b600080604083850312156113ba57600080fd5b60006113c885828601611354565b92505060206113d985828601611354565b9150509250929050565b6000806000606084860312156113f857600080fd5b600061140686828701611354565b935050602061141786828701611354565b925050604061142886828701611369565b9150509250925092565b6000806040838503121561144557600080fd5b600061145385828601611354565b925050602061146485828601611369565b9150509250929050565b61147781611c1c565b82525050565b61148681611c2e565b82525050565b600061149782611baa565b6114a18185611bb5565b93506114b1818560208601611c71565b6114ba81611d34565b840191505092915050565b60006114d2602383611bb5565b91507f45524332303a207472616e7366657220746f20746865207a65726f206164647260008301527f65737300000000000000000000000000000000000000000000000000000000006020830152604082019050919050565b6000611538601483611bb5565b91507f5061757361626c653a206e6f74207061757365640000000000000000000000006000830152602082019050919050565b6000611578601683611bb5565b91507f4e6f742074686520726967687420656e642074696d65000000000000000000006000830152602082019050919050565b60006115b8602683611bb5565b91507f4f776e61626c653a206e6577206f776e657220697320746865207a65726f206160008301527f64647265737300000000000000000000000000000000000000000000000000006020830152604082019050919050565b600061161e602283611bb5565b91507f45524332303a20617070726f766520746f20746865207a65726f20616464726560008301527f73730000000000000000000000000000000000000000000000000000000000006020830152604082019050919050565b6000611684602683611bb5565b91507f45524332303a207472616e7366657220616d6f756e742065786365656473206260008301527f616c616e636500000000000000000000000000000000000000000000000000006020830152604082019050919050565b60006116ea601883611bb5565b91507f4e6f74207468652072696768742073746172742074696d6500000000000000006000830152602082019050919050565b600061172a601083611bb5565b91507f5061757361626c653a20706175736564000000000000000000000000000000006000830152602082019050919050565b600061176a602883611bb5565b91507f45524332303a207472616e7366657220616d6f756e742065786365656473206160008301527f6c6c6f77616e63650000000000000000000000000000000000000000000000006020830152604082019050919050565b60006117d0602083611bb5565b91507f4f776e61626c653a2063616c6c6572206973206e6f7420746865206f776e65726000830152602082019050919050565b6000611810602583611bb5565b91507f45524332303a207472616e736665722066726f6d20746865207a65726f20616460008301527f64726573730000000000000000000000000000000000000000000000000000006020830152604082019050919050565b6000611876602483611bb5565b91507f45524332303a20617070726f76652066726f6d20746865207a65726f2061646460008301527f72657373000000000000000000000000000000000000000000000000000000006020830152604082019050919050565b60006118dc602583611bb5565b91507f45524332303a2064656372656173656420616c6c6f77616e63652062656c6f7760008301527f207a65726f0000000000000000000000000000000000000000000000000000006020830152604082019050919050565b61193e81611c5a565b82525050565b61194d81611c64565b82525050565b6000602082019050611968600083018461146e565b92915050565b6000602082019050611983600083018461147d565b92915050565b600060408201905061199e600083018561147d565b6119ab6020830184611935565b9392505050565b600060208201905081810360008301526119cc818461148c565b905092915050565b600060208201905081810360008301526119ed816114c5565b9050919050565b60006020820190508181036000830152611a0d8161152b565b9050919050565b60006020820190508181036000830152611a2d8161156b565b9050919050565b60006020820190508181036000830152611a4d816115ab565b9050919050565b60006020820190508181036000830152611a6d81611611565b9050919050565b60006020820190508181036000830152611a8d81611677565b9050919050565b60006020820190508181036000830152611aad816116dd565b9050919050565b60006020820190508181036000830152611acd8161171d565b9050919050565b60006020820190508181036000830152611aed8161175d565b9050919050565b60006020820190508181036000830152611b0d816117c3565b9050919050565b60006020820190508181036000830152611b2d81611803565b9050919050565b60006020820190508181036000830152611b4d81611869565b9050919050565b60006020820190508181036000830152611b6d816118cf565b9050919050565b6000602082019050611b896000830184611935565b92915050565b6000602082019050611ba46000830184611944565b92915050565b600081519050919050565b600082825260208201905092915050565b6000611bd182611c5a565b9150611bdc83611c5a565b9250827fffffffffffffffffffffffffffffffffffffffffffffffffffffffffffffffff03821115611c1157611c10611cd6565b5b828201905092915050565b6000611c2782611c3a565b9050919050565b60008115159050919050565b600073ffffffffffffffffffffffffffffffffffffffff82169050919050565b6000819050919050565b600060ff82169050919050565b60005b83811015611c8f578082015181840152602081019050611c74565b83811115611c9e576000848401525b50505050565b60006002820490506001821680611cbc57607f821691505b60208210811415611cd057611ccf611d05565b5b50919050565b7f4e487b7100000000000000000000000000000000000000000000000000000000600052601160045260246000fd5b7f4e487b7100000000000000000000000000000000000000000000000000000000600052602260045260246000fd5b6000601f19601f8301169050919050565b611d4e81611c1c565b8114611d5957600080fd5b50565b611d6581611c5a565b8114611d7057600080fd5b5056fea26469706673582212201becfdc5bca3e7c3d53bff28321bab4ba0072c95a2ffa4c7e5091059257112d364736f6c63430008000033",
  "immutableReferences": {},
  "source": "//SPDX-License-Identifier: UNLICENSED\r\npragma solidity ^0.8.0;\r\nimport \"@openzeppelin/contracts/token/ERC20/ERC20.sol\";\r\nimport \"@openzeppelin/contracts/security/Pausable.sol\";\r\nimport \"@openzeppelin/contracts/access/Ownable.sol\";\r\n\r\n\r\ncontract MockToken is ERC20, Pausable, Ownable{\r\n    uint256 public startTime;\r\n    uint256 public endTime;\r\n    event Paused(bool status, uint time);\r\n    event Unpaused(bool status, uint time);\r\n\r\n    constructor(uint _startTime, uint _endTime)  ERC20(\"TOKEN\", \"TKN\") {\r\n     _mint(msg.sender,1000000000000000000000000);\r\n      startTime = _startTime;\r\n      endTime = _endTime;\r\n    }\r\n//pause contract after specified endTime\r\n  function pause() public onlyOwner {\r\n    require(block.timestamp <= endTime, \"Not the right end time\");\r\n    emit Paused(true, endTime);\r\n    _pause();\r\n    }\r\n//unpause contract after specified startTime: use open zepplin pause modifier\r\n    function unpause() public onlyOwner whenPaused {\r\n      require(block.timestamp >= startTime, \"Not the right start time\");\r\n      emit Unpaused(false, startTime);\r\n      _unpause();\r\n    }\r\n//override _beforeTransferFunction to only be called when not paused\r\nfunction _beforeTokenTransfer(address from, address to, uint amount) internal\r\n        whenNotPaused\r\n        override\r\n    {\r\n        super._beforeTokenTransfer(from, to, amount);\r\n    }\r\n\r\n}\r\n",
  "sourcePath": "C:\\Users\\jjrab\\OneDrive\\Desktop\\Dappdev\\Interactive-Challenge\\contracts\\MockToken.sol",
  "compiler": {
    "name": "solc",
    "version": "0.8.0+commit.c7dfd78e.Emscripten.clang"
  },
  "schemaVersion": "3.4.3",
  "updatedAt": "2021-11-26T14:33:12.645Z",
  "networkType": "ethereum",
  "devdoc": {
    "kind": "dev",
    "methods": {
      "allowance(address,address)": {
        "details": "See {IERC20-allowance}."
      },
      "approve(address,uint256)": {
        "details": "See {IERC20-approve}. Requirements: - `spender` cannot be the zero address."
      },
      "balanceOf(address)": {
        "details": "See {IERC20-balanceOf}."
      },
      "decimals()": {
        "details": "Returns the number of decimals used to get its user representation. For example, if `decimals` equals `2`, a balance of `505` tokens should be displayed to a user as `5.05` (`505 / 10 ** 2`). Tokens usually opt for a value of 18, imitating the relationship between Ether and Wei. This is the value {ERC20} uses, unless this function is overridden; NOTE: This information is only used for _display_ purposes: it in no way affects any of the arithmetic of the contract, including {IERC20-balanceOf} and {IERC20-transfer}."
      },
      "decreaseAllowance(address,uint256)": {
        "details": "Atomically decreases the allowance granted to `spender` by the caller. This is an alternative to {approve} that can be used as a mitigation for problems described in {IERC20-approve}. Emits an {Approval} event indicating the updated allowance. Requirements: - `spender` cannot be the zero address. - `spender` must have allowance for the caller of at least `subtractedValue`."
      },
      "increaseAllowance(address,uint256)": {
        "details": "Atomically increases the allowance granted to `spender` by the caller. This is an alternative to {approve} that can be used as a mitigation for problems described in {IERC20-approve}. Emits an {Approval} event indicating the updated allowance. Requirements: - `spender` cannot be the zero address."
      },
      "name()": {
        "details": "Returns the name of the token."
      },
      "owner()": {
        "details": "Returns the address of the current owner."
      },
      "paused()": {
        "details": "Returns true if the contract is paused, and false otherwise."
      },
      "renounceOwnership()": {
        "details": "Leaves the contract without owner. It will not be possible to call `onlyOwner` functions anymore. Can only be called by the current owner. NOTE: Renouncing ownership will leave the contract without an owner, thereby removing any functionality that is only available to the owner."
      },
      "symbol()": {
        "details": "Returns the symbol of the token, usually a shorter version of the name."
      },
      "totalSupply()": {
        "details": "See {IERC20-totalSupply}."
      },
      "transfer(address,uint256)": {
        "details": "See {IERC20-transfer}. Requirements: - `recipient` cannot be the zero address. - the caller must have a balance of at least `amount`."
      },
      "transferFrom(address,address,uint256)": {
        "details": "See {IERC20-transferFrom}. Emits an {Approval} event indicating the updated allowance. This is not required by the EIP. See the note at the beginning of {ERC20}. Requirements: - `sender` and `recipient` cannot be the zero address. - `sender` must have a balance of at least `amount`. - the caller must have allowance for ``sender``'s tokens of at least `amount`."
      },
      "transferOwnership(address)": {
        "details": "Transfers ownership of the contract to a new account (`newOwner`). Can only be called by the current owner."
      }
    },
    "version": 1
  },
  "userdoc": {
    "kind": "user",
    "methods": {},
    "version": 1
  }
}